:100000000A128A11192D00308A000408840A820716
:10001000003450344F3454342034563441344C344A
:10002000553445343A3400344C3459344334413433
:0A00300053344F3446345434003486
:100A0C0064008001840A0406031900340406072DCF
:100A1C007108F301F3077008F201F20772088312F0
:100A2C0003139500080083132030840030300A1221
:100A3C008A1106250A128A1183010A128A11472F7C
:100A4C0002300A128A115A250A128A1128300A1207
:100A5C008A115A250A128A110C300A128A115A2547
:100A6C000A128A110800F4004C2D740884000A1232
:100A7C008A1103200A128A110A128A1189250A1274
:100A8C008A110130F3007308F4074C2D74088400AC
:100A9C000A128A1103200A128A110038031D572DDD
:100AAC00582D3B2D592D0800F2007208F039831295
:100ABC0003138800081188152130F1007630F000FE
:100ACC00F00B662DF10B662D640083120313881155
:100ADC007208F00003300310F00DFF3E031D712D62
:100AEC000310700DF0398800081188152130F100C1
:100AFC007630F000F00B802DF10B802D640083120A
:100B0C00031388110800F2007208F03983120313E2
:100B1C008800081588152130F1007630F000F00BB4
:100B2C00952DF10B952D6400831203138811720817
:100B3C00F00003300310F00DFF3E031DA02D031039
:100B4C00700DF0398800081588152130F1007630C9
:100B5C00F000F00BAF2DF10BAF2D640083120313DB
:100B6C0088110800F601F31FBC2DBD2DC62DF2090E
:100B7C00F309F20A0319F30AF6010314F60DC62D54
:100B8C00F11FC92DCA2DD02DF009F109F00A031956
:100B9C00F10AD02D710870040319D52DD62D0C2E09
:100BAC00F5010314F50DE62D01300310F00DF10DD8
:100BBC00FF3E031DDB2D0130F4007408F507E62D14
:100BCC00F11FE92DEA2DDA2DEC2DEC2D71087302B5
:100BDC00031DF22D70087202031CF52DF62DFD2D50
:100BEC007008F2027108031CF303F302FD2D0130AF
:100BFC000310F10CF00CFF3E031DFE2D0130F5022D
:100C0C00031D092E0A2EEC2D0C2E0C2E7608031D1E
:100C1C00102E162EF209F309F20A0319F30A162EF6
:100C2C007308F101F1077208F001F0071D2E08009E
:100C3C00F601F11F222E232E2C2EF009F109F00AB9
:100C4C000319F10AF6010314F60D2C2EF31F2F2EA7
:100C5C00302E3A2EF209F309F20A0319F30A013085
:100C6C00F4007408F6063A2EF701F80171087004C6
:100C7C000319412E422E802EF5010314F50D522E30
:100C8C0001300310F00DF10DFF3E031D472E013016
:100C9C00F4007408F507522EF11F552E562E462ED1
:100CAC00582E582E01300310F70DF80DFF3E031D82
:100CBC00592E71087302031D652E70087202031CF5
:100CCC00682E692E712E7008F2027108031CF30352
:100CDC00F3027714712E01300310F10CF00CFF3E6F
:100CEC00031D722E0130F502031D7D2E7E2E582E13
:100CFC00802E802E7608031D842E8A2EF709F80983
:100D0C00F70A0319F80A8A2E7808F101F107770817
:100D1C00F001F007912E08007A0883120313B90131
:100D2C00B9077908B801B8070A30F0000030F100B3
:100D3C003908F301F3073808F201F2070A128A1195
:100D4C00B8250A128A11710883120313B101B10775
:100D5C007008B001B0070A30F0000030F10039081B
:100D6C00F301F3073808F201F2070A128A111E2662
:100D7C000A128A11710883120313B901B90770089A
:100D8C00B801B8070A30F0000030F1003908F3015F
:100D9C00F3073808F201F2070A128A11B8250A1271
:100DAC008A11710883120313B301B3077008B201DF
:100DBC00B2070A30F0000030F1003908F301F307F4
:100DCC003808F201F2070A128A111E260A128A1139
:100DDC00710883120313B901B9077008B801B80779
:100DEC000A30F0000030F1003908F301F30738083D
:100DFC00F201F2070A128A11B8250A128A11710837
:100E0C0083120313B501B5077008B401B4070A3097
:100E1C00F0000030F1003908F301F3073808F20153
:100E2C00F2070A128A111E260A128A1171088312FD
:100E3C000313B701B7077008B601B6073608303E82
:100E4C000A128A1189250A128A1183120313340893
:100E5C00303E0A128A1189250A128A118312031351
:100E6C003208303E0A128A1189250A128A1183121D
:100E7C0003133008303E0A128A1189250A128A118E
:100E8C0008000130831603138500831203138501B8
:100E9C00831603138701831203138701831603132D
:100EAC00880183120313880101309F00CE30831612
:100EBC0003139F000C30831203139700910107302A
:100ECC009200960195010A128A1126250A128A119E
:100EDC000330FD008A30FC005630FB00FB0B742FF6
:100EEC00FC0B742FFD0B742F7B2F80300A128A1190
:100EFC005A250A128A110C300A128A1139250A1243
:100F0C008A11C0300A128A115A250A128A1101302C
:100F1C000A128A1139250A128A11962F962F962FAA
:100F2C000530831203139F00013A03199E2F9F2F44
:100F3C00962FA02F1E08FB00FC017B08FC00FB0178
:100F4C00831603131E087B0783120313AE000030B5
:100F5C00031801307C07AF000430F0000030F100C2
:100F6C002F08F301F3072E08F201F2070A128A1177
:100F7C001E260A128A11710883120313AF01AF07E0
:100F8C007008AE01AE07CA300A128A115A250A122D
:100F9C008A11831203132F08FA01FA072E08F9019C
:100FAC00F9070A128A1192260A128A114130FC00A2
:100FBC00EE30FB00FB0BE02FFC0BE02F64008312E8
:100FCC0003132F08F101F1072E08F001F0070A12A4
:100FDC008A110E250A128A114130FC00EE30FB00FA
:100FEC00FB0BF62FFC0BF62F6400962F962F0A1294
:040FFC008A1100282E
:02400E003A3F37
:00000001FF
